{
	"data": {
		"bytecode": {
			"linkReferences": {},
			"object": "608060405234801561001057600080fd5b5060d58061001f6000396000f3fe6080604052348015600f57600080fd5b506004361060325760003560e01c8063de8fa431146037578063ee90c99f14605d575b600080fd5b603d6065565b60405180826002811115604c57fe5b815260200191505060405180910390f35b6063607b565b005b60008060009054906101000a900460ff16905090565b60016000806101000a81548160ff02191690836002811115609857fe5b021790555056fea2646970667358221220ea322b7e7a882beb4d38ba45465ae758f37e02b698e44fed2061d448c0f66de964736f6c63430007060033",
			"opcodes": "PUSH1 0x80 PUSH1 0x40 MSTORE CALLVALUE DUP1 ISZERO PUSH2 0x10 JUMPI PUSH1 0x0 DUP1 REVERT JUMPDEST POP PUSH1 0xD5 DUP1 PUSH2 0x1F PUSH1 0x0 CODECOPY PUSH1 0x0 RETURN INVALID PUSH1 0x80 PUSH1 0x40 MSTORE CALLVALUE DUP1 ISZERO PUSH1 0xF JUMPI PUSH1 0x0 DUP1 REVERT JUMPDEST POP PUSH1 0x4 CALLDATASIZE LT PUSH1 0x32 JUMPI PUSH1 0x0 CALLDATALOAD PUSH1 0xE0 SHR DUP1 PUSH4 0xDE8FA431 EQ PUSH1 0x37 JUMPI DUP1 PUSH4 0xEE90C99F EQ PUSH1 0x5D JUMPI JUMPDEST PUSH1 0x0 DUP1 REVERT JUMPDEST PUSH1 0x3D PUSH1 0x65 JUMP JUMPDEST PUSH1 0x40 MLOAD DUP1 DUP3 PUSH1 0x2 DUP2 GT ISZERO PUSH1 0x4C JUMPI INVALID JUMPDEST DUP2 MSTORE PUSH1 0x20 ADD SWAP2 POP POP PUSH1 0x40 MLOAD DUP1 SWAP2 SUB SWAP1 RETURN JUMPDEST PUSH1 0x63 PUSH1 0x7B JUMP JUMPDEST STOP JUMPDEST PUSH1 0x0 DUP1 PUSH1 0x0 SWAP1 SLOAD SWAP1 PUSH2 0x100 EXP SWAP1 DIV PUSH1 0xFF AND SWAP1 POP SWAP1 JUMP JUMPDEST PUSH1 0x1 PUSH1 0x0 DUP1 PUSH2 0x100 EXP DUP2 SLOAD DUP2 PUSH1 0xFF MUL NOT AND SWAP1 DUP4 PUSH1 0x2 DUP2 GT ISZERO PUSH1 0x98 JUMPI INVALID JUMPDEST MUL OR SWAP1 SSTORE POP JUMP INVALID LOG2 PUSH5 0x6970667358 0x22 SLT KECCAK256 0xEA ORIGIN 0x2B PUSH31 0x7A882BEB4D38BA45465AE758F37E02B698E44FED2061D448C0F66DE964736F PUSH13 0x63430007060033000000000000 "
		},
		"gasEstimates": {
			"creation": {
				"codeDepositCost": "42600",
				"executionCost": "93",
				"totalCost": "42693"
			},
			"external": {
				"getSize()": "1053",
				"setSize()": "21031"
			}
		},
		"methodIdentifiers": {
			"getSize()": "de8fa431",
			"setSize()": "ee90c99f"
		}
	},
	"abi": [
		{
			"inputs": [],
			"name": "getSize",
			"outputs": [
				{
					"internalType": "enum fruit.fruitSize",
					"name": "",
					"type": "uint8"
				}
			],
			"stateMutability": "view",
			"type": "function"
		},
		{
			"inputs": [],
			"name": "setSize",
			"outputs": [],
			"stateMutability": "nonpayable",
			"type": "function"
		}
	]
}